{
  "_format": "hh-sol-artifact-1",
  "contractName": "Funds",
  "sourceName": "contracts/Funds.sol",
  "abi": [
    {
      "inputs": [],
      "stateMutability": "payable",
      "type": "constructor"
    },
    {
      "anonymous": false,
      "inputs": [
        {
          "indexed": true,
          "internalType": "address",
          "name": "to",
          "type": "address"
        },
        {
          "indexed": false,
          "internalType": "uint256",
          "name": "amount",
          "type": "uint256"
        },
        {
          "indexed": false,
          "internalType": "uint256",
          "name": "timestamp",
          "type": "uint256"
        }
      ],
      "name": "NewTxn",
      "type": "event"
    },
    {
      "inputs": [],
      "name": "getAllTxn",
      "outputs": [
        {
          "components": [
            {
              "internalType": "address",
              "name": "reciever",
              "type": "address"
            },
            {
              "internalType": "uint256",
              "name": "amount",
              "type": "uint256"
            },
            {
              "internalType": "uint256",
              "name": "timestamp",
              "type": "uint256"
            }
          ],
          "internalType": "struct Funds.SentTransaction[]",
          "name": "",
          "type": "tuple[]"
        }
      ],
      "stateMutability": "view",
      "type": "function"
    },
    {
      "inputs": [
        {
          "internalType": "address payable",
          "name": "_to",
          "type": "address"
        },
        {
          "internalType": "uint256",
          "name": "amount",
          "type": "uint256"
        }
      ],
      "name": "sendFunds",
      "outputs": [],
      "stateMutability": "payable",
      "type": "function"
    }
  ],
  "bytecode": "0x608060405261004c6040518060400160405280600581526020017f68656c6c6f00000000000000000000000000000000000000000000000000000081525061005160201b6103441760201c565b6101d4565b6100ed816040516024016100659190610152565b6040516020818303038152906040527f41304fac000000000000000000000000000000000000000000000000000000007bffffffffffffffffffffffffffffffffffffffffffffffffffffffff19166020820180517bffffffffffffffffffffffffffffffffffffffffffffffffffffffff83818316178352505050506100f060201b60201c565b50565b60008151905060006a636f6e736f6c652e6c6f679050602083016000808483855afa5050505050565b600061012482610174565b61012e818561017f565b935061013e818560208601610190565b610147816101c3565b840191505092915050565b6000602082019050818103600083015261016c8184610119565b905092915050565b600081519050919050565b600082825260208201905092915050565b60005b838110156101ae578082015181840152602081019050610193565b838111156101bd576000848401525b50505050565b6000601f19601f8301169050919050565b6108f0806101e36000396000f3fe6080604052600436106100295760003560e01c80636f64234e1461002e578063b64040681461004a575b600080fd5b610048600480360381019061004391906104c9565b610075565b005b34801561005657600080fd5b5061005f61027b565b60405161006c91906106d2565b60405180910390f35b61007e476103dd565b478111156100c1576040517f08c379a00000000000000000000000000000000000000000000000000000000081526004016100b890610736565b60405180910390fd5b60008273ffffffffffffffffffffffffffffffffffffffff16826040516100e7906106bd565b60006040518083038185875af1925050503d8060008114610124576040519150601f19603f3d011682016040523d82523d6000602084013e610129565b606091505b505090508061016d576040517f08c379a000000000000000000000000000000000000000000000000000000000815260040161016490610716565b60405180910390fd5b600060405180606001604052808573ffffffffffffffffffffffffffffffffffffffff16815260200184815260200142815250908060018154018082558091505060019003906000526020600020906003020160009091909190915060008201518160000160006101000a81548173ffffffffffffffffffffffffffffffffffffffff021916908373ffffffffffffffffffffffffffffffffffffffff160217905550602082015181600101556040820151816002015550508273ffffffffffffffffffffffffffffffffffffffff167f3e5afcf1dfcee04bbd585151295a36df144bbd410d181c6d0fd16c449beb65ff834260405161026e929190610771565b60405180910390a2505050565b60606000805480602002602001604051908101604052809291908181526020016000905b8282101561033b57838290600052602060002090600302016040518060600160405290816000820160009054906101000a900473ffffffffffffffffffffffffffffffffffffffff1673ffffffffffffffffffffffffffffffffffffffff1673ffffffffffffffffffffffffffffffffffffffff168152602001600182015481526020016002820154815250508152602001906001019061029f565b50505050905090565b6103da8160405160240161035891906106f4565b6040516020818303038152906040527f41304fac000000000000000000000000000000000000000000000000000000007bffffffffffffffffffffffffffffffffffffffffffffffffffffffff19166020820180517bffffffffffffffffffffffffffffffffffffffffffffffffffffffff8381831617835250505050610476565b50565b610473816040516024016103f19190610756565b6040516020818303038152906040527ff5b1bba9000000000000000000000000000000000000000000000000000000007bffffffffffffffffffffffffffffffffffffffffffffffffffffffff19166020820180517bffffffffffffffffffffffffffffffffffffffffffffffffffffffff8381831617835250505050610476565b50565b60008151905060006a636f6e736f6c652e6c6f679050602083016000808483855afa5050505050565b6000813590506104ae8161088c565b92915050565b6000813590506104c3816108a3565b92915050565b600080604083850312156104dc57600080fd5b60006104ea8582860161049f565b92505060206104fb858286016104b4565b9150509250929050565b6000610511838361065d565b60608301905092915050565b610526816107fa565b82525050565b6000610537826107aa565b61054181856107cd565b935061054c8361079a565b8060005b8381101561057d5781516105648882610505565b975061056f836107c0565b925050600181019050610550565b5085935050505092915050565b6000610595826107b5565b61059f81856107e9565b93506105af818560208601610848565b6105b88161087b565b840191505092915050565b60006105d06014836107e9565b91507f556e61626c6520746f2073656e642045746865720000000000000000000000006000830152602082019050919050565b60006106106000836107de565b9150600082019050919050565b600061062a6010836107e9565b91507f6e6f7420656e6f7567682066756e6473000000000000000000000000000000006000830152602082019050919050565b606082016000820151610673600085018261051d565b506020820151610686602085018261069f565b506040820151610699604085018261069f565b50505050565b6106a88161083e565b82525050565b6106b78161083e565b82525050565b60006106c882610603565b9150819050919050565b600060208201905081810360008301526106ec818461052c565b905092915050565b6000602082019050818103600083015261070e818461058a565b905092915050565b6000602082019050818103600083015261072f816105c3565b9050919050565b6000602082019050818103600083015261074f8161061d565b9050919050565b600060208201905061076b60008301846106ae565b92915050565b600060408201905061078660008301856106ae565b61079360208301846106ae565b9392505050565b6000819050602082019050919050565b600081519050919050565b600081519050919050565b6000602082019050919050565b600082825260208201905092915050565b600081905092915050565b600082825260208201905092915050565b60006108058261081e565b9050919050565b60006108178261081e565b9050919050565b600073ffffffffffffffffffffffffffffffffffffffff82169050919050565b6000819050919050565b60005b8381101561086657808201518184015260208101905061084b565b83811115610875576000848401525b50505050565b6000601f19601f8301169050919050565b6108958161080c565b81146108a057600080fd5b50565b6108ac8161083e565b81146108b757600080fd5b5056fea26469706673582212202bd236aecfe39423317454657a5a01ba9e537618adbbeb67cf68c38987b7223764736f6c63430008000033",
  "linkReferences": {},
  "deployedLinkReferences": {}
}